:020000040800F2
:10000000C03600202D020008593B00087932000854
:10001000553B000855040008F53E000800000000AC
:10002000000000000000000000000000613B00082C
:10003000AD040008000000005D3B0008653B0008BF
:10004000470200084702000847020008470200086C
:10005000470200084702000847020008470200085C
:10006000470200084702000847020008470200084C
:10007000470200084702000847020008470200083C
:100080004702000847020008490400084702000828
:100090005904000847020008470200084702000808
:1000A000470200084702000847020008470200080C
:1000B00047020008470200084702000847020008FC
:1000C00047020008470200084702000847020008EC
:1000D00047020008DD3E000847020008470200080A
:1000E00047020008470200084702000847020008CC
:1000F00047020008470200084702000847020008BC
:1001000047020008470200084702000847020008AB
:1001100047020008470200087D3B0008893B0008B1
:1001200065040008710400087D04000889040008C3
:10013000470200084702000847020008470200087B
:10014000470200084702000847020008470200086B
:100150004702000895040008A1040008E93E0008D1
:10016000470200084702000847020008470200084B
:10017000470200084702000847020008000000008C
:10018000470200084702000800F002F800F03EF8BD
:100190000AA090E8000C82448344AAF10107DA45E2
:1001A00001D100F033F8AFF2090EBAE80F0013F0F6
:1001B000010F18BFFB1A43F0010318475C4200000F
:1001C0007C420000103A24BF78C878C1FAD85207A0
:1001D00024BF30C830C144BF04680C6070470000C1
:1001E0000023002400250026103A28BF78C1FBD840
:1001F000520728BF30C148BF0B6070471FB504F0DD
:10020000E9F800F0D5F81FBD10B510BD00F0E2F818
:100210001146FFF7F3FF03F047FF00F000F903B4C6
:10022000FFF7F2FF03BC00F007F900000948804720
:1002300009480047FEE7FEE7FEE7FEE7FEE7FEE7C8
:10024000FEE7FEE7FEE7FEE704480549054A064BE0
:1002500070470000693B000889010008C0060020C3
:10026000C0360020C0160020C016002053EA020C41
:1002700000F069802DE9F04B4FF00006002B1FBF06
:10028000B3FA83F503FA05F424FA05F65E4012BFCB
:100290001643B2FA82F502FA05F4C5F120051EBF35
:1002A00022FA05FC44EA0C04203556EA044C4FEAD5
:1002B000144418BF641C4FF000084FF0000990422E
:1002C00071EB030C39D3002919BFB1FA81F701FA98
:1002D00007F6B0FA80F700FA07F6C7F120071EBF4D
:1002E00020FA07FC46EA0C062037B6FBF4FCA7EB25
:1002F0000507103F07F01F0BCBF120062CFA06F67E
:100300000CFA0BFB44BFB3460026202FA4BF5E4669
:100310004FF0000B5BEA060C08BF4FF0010B19EB26
:100320000B0948EB0608ABFB027C06FB02CC0BFB7F
:1003300003CCC01B71EB0C01C1E70B4602464146E2
:100340004846BDE8F08B13B5084318BF4FF0FF30A7
:100350000146AFF30080BDE81C4070474FF000023B
:1003600000B5134694469646203922BFA0E80C50AB
:10037000A0E80C50B1F12001BFF4F7AF090728BF86
:10038000A0E80C5048BF0CC05DF804EB890028BF02
:1003900040F8042B08BF704748BF20F8022B11F02B
:1003A000804F18BF00F8012B7047704770477047A7
:1003B00070B5064C7C44064D7D4404E0204601683F
:1003C00008448047241DAC42F8D170BD8040000035
:1003D00080400000754600F02BF8AE4605006946E7
:1003E000534620F00700854618B020B5FFF72CFFD4
:1003F000BDE820404FF000064FF000074FF0000826
:100400004FF0000BAC46ACE8C009ACE8C009ACE862
:10041000C009ACE8C00921F007018D46704710B54E
:100420000446AFF300802046BDE81040FFF7F7BE5A
:10043000004870473000002001491820ABBEFEE79D
:10044000260002007047000040F2D000C2F2000017
:1004500000F0DCB8FEE7000040F21810C2F2000025
:1004600000F0D6BB40F24010C2F2000000F076BEB1
:1004700040F2C020C2F2000000F070BE40F2002046
:10048000C2F2000000F06ABE40F2A010C2F200000A
:1004900000F064BE40F22030C2F2000000F05EBE08
:1004A00040F26020C2F2000000F058BE7047000029
:1004B00072B600BFFEE700007047000070B581B063
:1004C0000022009290F83C20012A03D10221084624
:1004D00001B070BD0E6801220A2E80F83C2009D3BD
:1004E000B2B25200D0F800E012FA86F21E3A0EF1D3
:1004F0000C0305E0D0F800E006EB46020EF1100315
:100500004FF0070C1D680CFA02F4A5431D608D68BE
:100510001C6805FA02F222431A60496806290FD8BE
:1005200001EB81014A1F71461F2351F8345F93404C
:1005300025EA03030B60B3B203FA02F214E000BF32
:1005400001EB81030C29B2B204D8714651F8304F47
:10055000233B03E0714651F82C4F413B1F259D4042
:1005600024EA05059A400D600B6842F2043CC4F28F
:10057000010C1A43ACF541739E450A603BD1122E23
:1005800006D1DCF8001041F48001CCF8001032E014
:1005900026F0010110292ED1DCF80010102E41F4B4
:1005A0000001CCF8001026D140F22801C2F200016F
:1005B00009684DF68362C4F21B32A1FB0212910C52
:1005C00001EB8101490000910099A1B10099013925
:1005D0000091009979B1009901390091009951B1C8
:1005E000009901390091009929B1009901390091D0
:1005F00000990029EAD1002180F83C10084601B09A
:1006000070BD0000704700007047000070B50446E0
:10061000006806684568B10717D515F0200114D0A9
:10062000216CC90603D4216C41F4007121648168F6
:1006300011F0405F02D1217E002969D02046FFF7EA
:10064000E1FF20686FF012010160710714D515F009
:10065000800111D0216CC90603D4216C41F40051F2
:100660002164816811F4401F22D02046FFF724FF47
:1006700020686FF00C010160F10706D015F0400111
:100680001CBF01685FEAC17134D1B1060FD515F006
:10069000806108BF70BD616C6FF0200541F0020100
:1006A000616405602046FFF7AFFF2068056070BDFC
:1006B000816B11F4401F02D081684905D5D441688F
:1006C0004905D2D4816811F0405FCED1217E002946
:1006D000CBD1416821F080014160206C20F4805032
:1006E0002064206CC005C0D4206C40F00100206460
:1006F000BBE700BF206C40F480302064204600F04F
:10070000D1F820686FF001010160B106BFD4CEE7D7
:10071000C16A11F4700F03D0816849053FF58EAFAF
:10072000416821F020014160206C20F48070206439
:10073000206CC0043FF582AF206C40F001002064C3
:100740007CE70000002804BF0120704710B5044674
:10075000006C00283ED0206CC00645D4206C41F2CD
:1007600002118843023042F204312064C4F20101D4
:10077000086820F4403008600A6894E809101A43B9
:10078000D4F810E00A604168012321F480714160CF
:100790004168C0F6007341EA0E214160416821F0D2
:1007A00040714160416841EA0C014160816821F477
:1007B00000618160E168826811438160A16A82689A
:1007C000994222F070628260826813D122F0405117
:1007D00019E000BF204600F067F80020606484F84C
:1007E0003C00206CC006B9D50120002184F83C10E3
:1007F00010BD00BF11438160816821F040518160CC
:10080000E16A826811438160816821F002018160A0
:100810008168227E94F8203041EA4201816041687B
:1008200083B141F40061416041684EF2000221F45D
:1008300060414160616ACFF6FF72436802EB41316B
:10084000194301E021F400614160C16A40F2000CEB
:1008500021F47001C162E2696169CFF6F07CC36A7C
:100860000CEB02521A43C262826822F40072826068
:1008700094F83020836843EA42228260826822F43E
:1008800080628260826842EA812181600020606427
:10089000216C012262F301012164002184F83C10E3
:1008A00010BD00007047000080B586B042F2002104
:1008B0000068C4F20101002288420592049201D02E
:1008C00006B080BD43F630000092C4F202004369D6
:1008D00043F480634361436903F480630093009BA6
:1008E0000092036843F020030360006800F02000DA
:1008F000009000984FF4806001900320CDE902023F
:1009000001F5724001A900F0CFFD12200021002264
:1009100000F054FF122000F03DFF06B080BD000043
:1009200090F82020013A012A08D8006800F114024A
:100930000020136819431160704700BF00F12402C2
:1009400001204FF4802113681943116070470000A3
:1009500010B590F820E0D0F800C0AEF1010EBEF165
:10096000010FDCF808E011D81EF0E05F18D0CEF3DC
:10097000016E012000FA0EF018608B68D3B1486850
:10098000CC6844EAC000034318E000BF00F1240132
:1009900001204FF480220B681A430A6010BD00BF8B
:1009A00000F1240101204FF400120B681A430A6081
:1009B00010BD00BF0868CB6843EA40530CEB0E1033
:1009C000C0F880310B69C0F88431097D012905D157
:1009D00000F5C2710B6843F480730B605168C0F876
:1009E0008C11126800F5C071C0F888210020012226
:1009F0000B681A430A6010BDB0B590F82020013A88
:100A0000012A2FD846F20060C4F20000026842F0CA
:100A100001020260026822F47C520260D1F814E004
:100A2000CC694A6A0368012C43EA022202600EF094
:100A30001F024FF0010303FA02F2C3696FEA020CCE
:100A400023EA0203C36113D02CBBC36803EA0C037F
:100A5000C360CB688C8844EA034300EBCE04236474
:100A60000B4611E0416A41F4802141620120B0BD92
:100A7000C3681343C3600B688C8844EA034300EBEC
:100A8000CE04236401F10C038C681B8843EA044301
:100A900000EBCE04636443688D6943EA0204D1F835
:100AA00010E0096A002D08BF03EA0C0444604369A2
:100AB000BEF1000F43EA020408BF03EA0C04012957
:100AC000446102D1C1691143C161016821F0010192
:100AD00001600020B0BD00007047000010B590F824
:100AE0002040013C012C7BD8D0F800C0002900F048
:100AF0008180DCF81040A40700F081800CEB011C21
:100B0000DCF8B0410CF5D87E14F004049460DCF8F5
:100B1000B04119BFE4085460640D1460DEF8004071
:100B20000CF5DA7E04F00204D460DCF8B44124074A
:100B30005ABFDEF8004004F00F0408241461DEF808
:100B400000400029C4F307249461DEF800404FEA16
:100B500014445461DCF8B8211A70026802EB0112E7
:100B6000D2F8B8214FEA12225A70026802EB011241
:100B7000D2F8B8214FEA12429A70026802EB0112D1
:100B8000D2F8B8214FEA1262DA70026802EB011261
:100B9000D2F8BC211A71026802EB0112D2F8BC2112
:100BA0004FEA12225A71026802EB0112D2F8BC21FC
:100BB0004FEA12429A71026802EB0112D2F8BC218C
:100BC0004FEA1262DA71006814BF00F1100100F1FF
:100BD0000C01002020220B681A430A6010BD00BFE0
:100BE00000F1240101204FF480220B681A430A60AF
:100BF00010BD00BFDCF80C40A4077FF47FAF00F10C
:100C0000240101204FF400120B681A430A6010BD42
:100C10002DE9F04F81B0044600684669D0F8049091
:100C20008768D0F80CB0D0F810A0D0F81880F10781
:100C300004D1002530071DD424E000BFF90710D0EF
:100C40000121BA07816009D4780700F1AF80380725
:100C500000F1B680204600F019FA02E0204600F0CC
:100C600017FA0025F80500F18780F80300F1B1803C
:100C7000300707D51BF0100004D0206845F400753C
:100C80001021C160700708D51BF0080005D020684E
:100C90000821C160204600F0A1F9B00706D5206800
:100CA000C068800702D0204600F09AF9700607D588
:100CB0001AF0100004D0206845F48065102101610D
:100CC000B00608D51AF0080005D020680821016197
:100CD000204600F0A7F9F00606D5206800698007D5
:100CE00002D0204600F0A0F9B00308D519F010009A
:100CF00005D0206810214160204600F097F9F003EC
:100D000008D519F0080005D0206808214160204668
:100D100000F0C8F9300440F19B805FEA497040F16F
:100D2000948006F4807008EA102028435FEA8871F6
:100D3000014648BF41F00201B20558BF01465FEAD3
:100D400048700D4648BF45F00405700558BF0D4674
:100D5000300540F17A8018F0700000F0768010388D
:100D6000000905286CD8DFE800F003595D6165696A
:100D700045F0080564E000BF20684FF48071BA05B3
:100D800081600BD4780515D438051DD4204600F0B9
:100D900081F9F8037FF56CAF1BE000BF204600F03F
:100DA0007BF9F8037FF564AF13E000BF4FF40065F3
:100DB00058E700BF05F50055F8037FF559AF08E087
:100DC0004FF480554EE700BF05F58045F8037FF5E9
:100DD0004FAF20684FF48031BA0381600AD47803A2
:100DE00010D4380314D4204600F058F930073FF5EA
:100DF00041AF47E7204600F053F930073FF53AAFDF
:100E000040E700BF05F5004530073FF533AF39E750
:100E100005F5803530073FF52DAF33E745F0100578
:100E20000EE000BF45F020050AE000BF45F0400598
:100E300006E000BF45F0800502E000BF45F4807584
:100E40002068816921F0700181612068042141607E
:100E500055B1606A40EA05012046616201B0BDE813
:100E6000F04FFFF739BE00BF01B0BDE8F08F0000C2
:100E7000B0B5C8B1044690F8200010B9204600F083
:100E800071F82068016841F00101016000F0E6FBA3
:100E9000054600BF20684168C90707D100F0DEFBA6
:100EA000401B0B28F6D312E00120B0BD016821F0F1
:100EB0000201016000F0D2FB054600BF20684168D6
:100EC00089070DD500F0CAFB401B0B28F6D3606ADA
:100ED000052140F400306062012084F82010B0BD8C
:100EE000217E0268012922F0800208BF8032026060
:100EF000617E0268012922F0400208BF4032026090
:100F0000A17E0268012922F0200208BF203202607F
:100F1000E17E0268012922F0100218BF103202603F
:100F2000217F0268012922F0080208BF083202600E
:100F3000617F0268012922F0040208BF04320260C6
:100F4000D4E901C2D4E9033561691A432A43114344
:100F5000ACF101021143C16100200121606284F8FB
:100F60002010B0BD80B586B0016846F20040C4F2E2
:100F70000000814202D006B080BD00BF002143F6D0
:100F800030020191C4F20202136900F5D43043F03B
:100F900000731361136903F000730193019B0191C6
:100FA000136843F0080313601268022302F008027A
:100FB0000192019ACDE9023109210322059101A98B
:100FC0000192049200F070FA14200021002200F037
:100FD000F5FB142000F0DEFB06B080BD704700007A
:100FE00010B5006846F20041C4F20001884218BF03
:100FF00010BD40F2B46440F2181040F2B402C2F2E4
:101000000004C2F20000C2F2000200212346FFF7F2
:1010100065FD40F29000C2F200002146BDE810409C
:1010200002F0C6BF70470000704700007047000024
:10103000B0B5044690F8200001281DD1022084F8A4
:1010400020002068016821F00101016000F006FB2A
:10105000054600BF20684068C00713D000F0FEFAC4
:10106000401B0B28F6D3606A40F400306062052014
:1010700084F820000120B0BD606A40F40020606266
:101080000120B0BD00206062B0BD000070470000CC
:101090007047000070470000704700007047000074
:1010A000704700007047000070B5866D044600F080
:1010B000D5FA94F83510022928D105462068216C0C
:1010C000026822F016020260426922F08002426148
:1010D00009B9A16C19B1016821F00801016001682A
:1010E00021F00101016000BF20680068C00715D031
:1010F00000F0B4FA401B0628F6D3202060650320D8
:1011000084F83500002184F8341070BD80206065BB
:101110000120002184F8341070BD00BFE06D3F2134
:1011200001FA00F0B060012084F8350000200021B1
:1011300084F8341070BD000090F83510022909D1F0
:10114000052180F835100068016821F00101016077
:10115000002070478021416501207047F0B581B0C3
:1011600004460020009040F22800C2F2000002680D
:10117000D4E9166048F2B51337680821C1F64E333A
:1011800081403942A2FB03250CD0226813685B071B
:1011900008D5136823F004031360B160616D41F05A
:1011A0000101616501218140394208D022685269FC
:1011B000120604D5B160616D41F002016165042140
:1011C0008140394208D022681268920704D5B16084
:1011D000616D41F00401616510218140394217D0F1
:1011E00020680268120713D5B160026801685203D3
:1011F00008D4C90508D4016821F008010160216CF8
:1012000021B905E008033FD4216C09B12046884785
:10121000E16D202000FA01F23A4241D020680368D3
:10122000DB063DD5B26094F835300268052B1BD142
:1012300022F016020260426922F080024261226CB2
:101240000AB9A26C1AB1026822F0080202603F20BB
:101250008840B060012084F83500216D002000290D
:1012600084F8340052D157E00168520310D4C90504
:1012700012D4016821F010010160012084F83500CA
:10128000002084F8340007E0A16C0029BED1BFE73C
:10129000080301D4616C00E0E16B09B12046884786
:1012A000606DC8B3606DC0072ED0052084F835008E
:1012B0002068A90A026822F001020260009A013245
:1012C0008A4200921AD80268D20717D0009A0132D7
:1012D0008A42009212D80268D2070FD0009A0132D7
:1012E0008A4200920AD80268D20707D0009A0132D7
:1012F0008A42009202D80268D207DFD1012084F826
:101300003500002084F83400E16C29B1204601B09A
:10131000BDE8F040084700BF01B0F0BD2DE9F04145
:10132000044600F09BF9ECB10546022084F8350034
:101330000020216884F83400086820F0010008606B
:1013400021680868C00711D000F088F9401B052803
:10135000F6D9032520230320636584F83550BDE8C2
:10136000F08100BF0120BDE8F08100BF086848F2AD
:101370003F02CFF21002D4E9013500EA020C04F179
:101380000C0898E8C10143EA0C032B431843D4E945
:10139000072E304338431043626A40EA0E00042AA5
:1013A00040EA08031CD1206BD4E90A2E40EA0E0063
:1013B000184308604869BEF1000F20F0030040EABE
:1013C000020040F0040C11D0B8F5005F36D0B8F13F
:1013D000000F45D1022A46D0012A3BD032B942E063
:1013E0000B60486920F0070040EA020C01F0F800A9
:1013F0004AF6AB221038CAF6AA22A0FB02231A0929
:1014000044F21043C0F600039A5C40F2FF335F28B9
:101410004FF03F00C1F814C021EA030100FA02F0C6
:1014200088BF0431C4E9161288600023012500201A
:10143000636584F83550BDE8F08100BF032AD5D834
:10144000012540230120DFE802F0030E030500BF61
:1014500082E700BFAEF1C070B0FA80F0400904E04E
:10146000032A04D3C2D1CEF300600028BED00125E8
:1014700040230120636584F83550BDE8F081000009
:10148000B0B5044600F0EAF8054640F22000C2F28A
:1014900000000078611C18BF044400BF00F0DEF8B3
:1014A000401BA042FAD3B0BD2DE9F04F82B000F14D
:1014B0003E4241F6004502F1FF77C4F202050822E0
:1014C00043F6004E4FEAB726A84208BF0722C4F2EF
:1014D000010E072E38BF4FEAB7220125002600274C
:1014E0004FF00008009208E008F101080437B8F155
:1014F000100F06F1020600F0A7800C6805FA08F943
:1015000014EA090FF0D0D1F804B003220BF0030C59
:10151000ACF10104B240012C6FEA020A10D88268D3
:10152000CC6802EA0A02B440224382604268CBF3EC
:10153000001422EA090204FA08F42243426005E09A
:10154000BCF1030F02D14FF0030C20E0C2688C689D
:1015500002EA0A02B4402243BCF1020FC26016D173
:101560006FF0030202EA58020244D2F820C007F0EA
:101570001C050F230C69AB402CEA030304FA05F5A4
:101580002B431362D1F804B001250BF0030C026861
:101590000CFA06F302EA0A021A431BF4403F026007
:1015A000A2D0002243F644030192C4F202031A6857
:1015B0004FF6084C42F480421A601A68CFF6FF7C5E
:1015C00002F480420192019A28F00302724452F818
:1015D0000C3007F00C050F24AC40A343009C04FA28
:1015E00005F52B4342F80C30DEF808204B6842EA40
:1015F000090543F60C4CDC0258BF22EA0905CEF877
:101600000850C4F2010CDCF800209C0242EA0905F3
:1016100058BF22EA0905CCF80050DEF804209C03EC
:1016200042EA090558BF22EA0905CEF80450DEF85F
:101630000020DB0342EA090558BF22EA0905CEF87B
:101640000050012550E700BF02B0BDE8F08F000058
:10165000002A08BF090481617047000040F2BC60A5
:10166000C2F2000000687047B0B538B304460068A5
:10167000D4E901124CF6CC43036045F255530360A4
:1016800041608260FFF7EAFF2168CA6892070FD0C5
:10169000054602E0C86880070AD0FFF7DFFF401B5D
:1016A00021683228F6D3C8688007F3D00320B0BD84
:1016B0004AF6AA2008600020B0BD00BF0120B0BDDE
:1016C00040F2200040F2BC61C2F20000C2F2000110
:1016D00000780A68104408607047000080B543F63F
:1016E0000040C4F20200016841F400710160016829
:1016F00041F480610160016841F480710160032060
:1017000000F088F8002000F005F800F027F800202D
:1017100080BD000070B540F22006C2F2000640F223
:1017200028013278C2F200014FF47A730968B3FBE2
:10173000F2F20446B1FBF2F1084600F02BFC0F2C4C
:101740004FF0010508D838B94FF0FF30214600228C
:10175000002500F033F87460284670BD82B0002088
:1017600043F640010190C4F202014A6842F480420B
:101770004A604A6802F480420192019A0090086827
:1017800040F080500860086800F080500090009899
:1017900002B07047002848BF7047C1B200F01F0078
:1017A000012202FA00F04EF20012CEF2000242EAEA
:1017B000D10121F0030108607047000010B54EF61A
:1017C0000C5CCEF2000CDCF80030C3F3022E8EF07D
:1017D0000704042C28BF0424BEF103034FF0FF3E8E
:1017E0000EFA04F438BF0023A14399400EFA03F324
:1017F0009A43114300F00F0200F160430901043ADB
:1018000003F564436244002848BF02F10C031970D9
:1018100010BD00004EF60C51CEF200010A684FF6E2
:10182000FF031A4060F30A2242F0806040F0FD702E
:10183000086070472DE9F041002800F08B8043F6E6
:101840000808C4F202080446D8F8F8030D4600F070
:101850000700884207D288F8F853D8F8F80300F058
:101860000700A84276D12068810717D5410705D522
:10187000D8F8001041F4E051C8F80010010705D570
:10188000D8F8001041F46041C8F80010D8F80010F2
:10189000A26821F0F0011143C8F80010C0073FD141
:1018A000D8F8F80300F00700A84207D988F8F853E1
:1018B000D8F8F80300F00700A8424BD12068410790
:1018C00007D5D8F80010E26821F4E0511143C8F8B8
:1018D0000010000708D5D8F80000216920F4604006
:1018E00040EAC100C8F8000000F07CF8D8F8001009
:1018F00044F2F832C1F30311C0F60002515C40F229
:10190000280220FA01F140F22400C2F2000000682F
:10191000C2F200021160FFF7FDFE0020BDE8F08179
:101920006068811E022907D258F8081C89015CBF33
:101930000120BDE8F08111E0012807D158F8081C0A
:1019400089035CBF0120BDE8F08107E058F8081C5E
:10195000890703D40120BDE8F08100BFD8F800104A
:1019600021F003010843C8F80000FFF777FE0646A0
:1019700041F28837D8F80000616800F00C00B0EB45
:10198000810F8DD0FFF76AFE801BB842F2D9032089
:10199000BDE8F08140F2280043F60801C2F20000E1
:1019A000C4F202010068096844F20842C1F38221CE
:1019B000C0F60002515CC8407047000040F22800A9
:1019C00043F60801C2F20000C4F20201006809688F
:1019D00044F20842C1F34231C0F60002515CC840F3
:1019E0007047000010B543F60404C4F202046068B6
:1019F00000F00C0008280BD0042819BF42F2004068
:101A0000C0F2F40041F60030C0F2B70010BD00BFD4
:101A1000206821682368490241F60031C0F2B7010D
:101A200000F03F02C3F388105CBF42F20041C0F2F5
:101A3000F401A1FB00010023FEF718FC216802223B
:101A4000C1F3014102EB4101B0FBF1F010BD000018
:101A50002DE9F04182B0002868D00446007843F6B2
:101A60000006C007C4F202060BD0B06800F00C00FC
:101A7000042840F09F803068800302D56068002809
:101A800054D0207880071AD5B06810F00C0F09D018
:101A9000B06800F00C00082840F0A6807068400292
:101AA00000F1A2803068800702D5E06801283DD1AE
:101AB0003068216920F0F80040EAC10030602078E9
:101AC000000737D4207840074CD4A56955B3B068D7
:101AD00000F00C00082840F0BB80012D26D0706873
:101AE000E16900F480028A4220D1216A00F03F02BD
:101AF0008A421BD147F6C071626A0140B1EB821F76
:101B000014D1A16A4FF6FF73C903994300F4403220
:101B1000A1F580318A4209D1E16A00F07060B0EB32
:101B2000016F03D1002002B0BDE8F081012002B0B6
:101B3000BDE8F0816069002840F20000C4F247204F
:101B400076D00121C0F8801EFFF788FD054600BF52
:101B5000706F8007B6D4FFF781FD401B0228F7D9CC
:101B6000DDE000BF306C10F080580AD100200190F9
:101B7000306C40F080503064306C00F08050019048
:101B8000019847F20007C4F200073868C00541D445
:101B9000386840F480703860FFF760FD054600BF8C
:101BA0003868C00536D4FFF759FD401B0228F7D925
:101BB000B5E000BFB06800F00C00082803D17068E1
:101BC00040023FF558AF6068B0F5803F07D0B0F5F0
:101BD000A02F40F08D80306840F480203060306865
:101BE00040F4803030608DE0E068002852D0002062
:101BF000C4F2472001210160FFF730FD054600BF18
:101C0000306880073FF554AFFFF728FD401B0228DE
:101C1000F6D984E0A068012805D005284ED1306FA0
:101C200040F004003067306F40F0010030674FE053
:101C30000021C0F8801EFFF711FD0546706F800778
:101C40007FF540AFFFF70AFD401B0228F6D966E09A
:101C50000027C4F2472700203866FFF7FFFC022D5B
:101C600005460BD1306880015ED5FFF7F7FC401BBD
:101C700002284FF00300F5D955E700BF3068800116
:101C80007FF550AFFFF7EAFC401B02284FF003003E
:101C9000F4D948E70020C4F2472000210160FFF793
:101CA000DDFC0546306880077FF509AFFFF7D6FCFD
:101CB000401B02284FF00300F4D934E7316F0028AD
:101CC00021F001013167316F21F0040131674DD0FE
:101CD000FFF7C4FC054641F2883700BF306F80072C
:101CE00056D4FFF7BBFC401BB842F7D917E000BF42
:101CF0003168002821F480313160316821F480217D
:101D000031604FD0FFF7AAFC054600BF3068800362
:101D10003FF5B7AEFFF7A2FC401B6428F6D90320BD
:101D200002B0BDE8F08100BF04F11C052FCD0843CF
:101D300040EA8210D9034FF6FF729143A1F580313A
:101D400040EA05600843706001203866FFF786FCB2
:101D5000044600BF306880013FF5E4AEFFF77EFC2B
:101D6000001B02284FF00300F4D9DCE6FFF776FCF5
:101D7000054641F2883700BF306F800708D5FFF76E
:101D80006DFC401BB8424FF00300F5D9CBE600BF15
:101D9000B8F1000F7FF499AE306C20F080503064C1
:101DA00093E600BFFFF75AFC054600BF306880038A
:101DB0007FF567AEFFF752FC401B64284FF003002D
:101DC000F4D9B0E670B538B10446406A30B10020AD
:101DD000206104F1140007E0012070BD6068B0F5D7
:101DE000827F03D004F11C00002101600026A6625E
:101DF00094F8510020B9204684F8506000F03CF877
:101E0000022084F8510094E80F0001F48271056803
:101E100002F4044225F040050560114403F4006219
:101E20002369114403F002026369114403F00102C3
:101E3000A369E569114403F40072114405F0380206
:101E4000256A114405F08002A56A114305F4005289
:101E500011430160626A042101EA134102F0100299
:101E600011444160C16921F40061C16101206665CE
:101E700084F85100304670BD2DE9F04F85B004461E
:101E8000006843F20007C4F20107B84202D005B06F
:101E9000BDE8F08F002643F630000096C4F2020041
:101EA00041696D4641F480514161416946F21048F3
:101EB00001F4805100910099009601684FF00209E9
:101EC00041F00201016001684FF0030A01F00201D4
:101ED00000910099009601684FF0050B41F0010157
:101EE00001600068294600F0010000900098182069
:101EF000009007F55440C4F20208CDE90196CDF8F0
:101F00000CA0CDF810B0FFF7CFFA8020CDE9000982
:101F100002A880E8400C07F550402946FFF7C4FAB4
:101F200040F24015C2F200054FF0C0674FF48069DF
:101F30002846C5E90087C5E90266C5E90496C5E9F2
:101F40000666C5E90866FFF7E9F9002818BFFEF73D
:101F5000AFFAE564AC6340F2A01508F14800C2F2A4
:101F600000054021C5E9000705F1080080E84202AC
:101F70002846C5E90566C5E907666E62FFF7CEF932
:101F8000002818BFFEF794FAA564AC6305B0BDE85D
:101F9000F08F0000411E0020B0EB116F1CBF01202C
:101FA00070474EF21002CEF2000251604EF62351FD
:101FB000CEF20001F0230B70072190601160704792
:101FC0007047000070470000B0B590F83C20012A2F
:101FD00004BF0220B0BD01F108053CCDD1E900CE1F
:101FE00023F47C5322F470521A432EF4F0431A4324
:101FF0002CF4E0431A4324F4C0431A432A43C9692A
:1020000022F48042036811435964002180F83C1097
:102010000846B0BD10B590F83C20012A4FF00202EE
:1020200051D080F83D200268D2F804E0D2F808C010
:102030000C682EF07003234341F2FF74C4F20004D5
:10204000A24253600EDC40F2FF73C4F200039A42D6
:1020500016DCB2F1804F2BD040F20043C4F20003F3
:1020600024E000BF40F2FF33C4F201039A4213DCC4
:1020700041F60003C4F200039A4219D0002313E092
:1020800040F60003C4F200039A4211D040F6004328
:10209000C4F200030AE000BF44F20003C4F20103EB
:1020A0009A4205D040F20043C4F201039A4204D19F
:1020B00049682CF08003194391600121002280F8C7
:1020C0003D1080F83C20104610BD0000002804BFE1
:1020D0000120704710B5044690F83D0028B9002053
:1020E00084F83C00204600F01FF8022084F83D00F0
:1020F0002068211D01F04EFD012084F8460084F87F
:102100003E0084F83F0084F8400084F8410084F8E1
:10211000420084F8430084F8440084F8450084F8C1
:102120003D00002010BD000080B586B0006841F27F
:10213000FF31C4F2000188422CDC40F20041C4F2BD
:102140000001884248D040F60001C4F200018842F4
:1021500070D041F20001C4F20001884240F0A58035
:102160000020019043F64000C4F202000168002202
:1021700041F0100101600068002100F010000190A2
:1021800001983620FFF71AFB362006B0BDE88040E4
:10219000FFF700BB41F20041C4F2000188425BD06E
:1021A00040F20041C4F2010188426FD00021C4F224
:1021B0000101884279D10020019043F64000C4F229
:1021C0000200416841F001014160406800F00100F7
:1021D0000190019806B080BD002043F640010190B7
:1021E000C4F202010A6842F002020A600A6802F0C0
:1021F00002020192019A019051F8102C42F004025F
:1022000041F8102C51F8101C01F0040101910199C2
:102210004FF4807101910221CDE90210CDE9040152
:1022200040F60000C4F2020001A9FFF73DF906B034
:1022300080BD00BF0020019043F64000C4F20200C0
:10224000016841F004010160006800F004000190A1
:10225000019806B080BD00BF0020019043F6400009
:10226000C4F202000168002241F020010160006810
:10227000002100F02000019001983720FFF79EFA1E
:10228000372006B0BDE88040FFF784BA00200190F7
:1022900043F64000C4F20200416841F0020141608F
:1022A000406800F002000190019806B080BD000077
:1022B00080B590F83C20012A4FF0020200F0C28065
:1022C00080F83D20D0F800C04FF67772DCF8083077
:1022D00023EA0202CCF808200B684F2B28DC1F2BC6
:1022E00044DD202B45D0302B43D0402B40F0AC8038
:1022F000D1F804E0C968DCF82030DCF8202022F0B6
:102300000102CCF82020DCF8182022F0F00242EA8A
:10231000011123F00A0242EA0E02CCF81810CCF8A0
:102320002020DCF8081041F0470121F0300180E066
:102330006F2B27DDB3F5005F48D0B3F5805F7AD00F
:10234000702B40F08180D1E901E3C968DCF80820F6
:1023500043EA0E0322F47F4243EA01211143CCF801
:102360000810DCF8081041F0770162E00BB1102B87
:102370006AD1DCF8081021F07001194341F007011F
:1023800057E000BF502B35D0602B5DD1D1F804E071
:10239000C968DCF82030DCF8202022F01002CCF8EC
:1023A0002020DCF8182022F4704242EA013123F0A8
:1023B000A00242EA0E12CCF81810CCF82020DCF86B
:1023C000081041F0670121F0100132E0D1E901E38A
:1023D000C968DCF8082043EA0E0322F47F4243EA8E
:1023E00001211143CCF80810DCF8081041F48041B9
:1023F0001FE000BFD1F804E0C968DCF82030DCF849
:10240000202022F00102CCF82020DCF8182022F055
:10241000F00242EA011123F00A0242EA0E02CCF86D
:102420001810CCF82020DCF8081041F0570121F0FA
:102430002001CCF808100022012180F83D10002175
:1024400080F83C10104680BD0122F5E7704700007F
:1024500070B504460068C5680669B10716D515F061
:10246000020113D06FF0020101610121217780691F
:10247000800703D02046FFF7E9FF05E0204600F083
:1024800049F9204600F0A4FA00202077700719D5FA
:1024900015F0040016D020686FF0040101610221DC
:1024A0002177806910F4407F04D02046FFF7CEFFEB
:1024B00006E000BF204600F02DF9204600F088FA23
:1024C00000202077300717D515F0080014D02068B9
:1024D0006FF00801016104212177C069800703D0F2
:1024E0002046FFF7B3FF05E0204600F013F9204631
:1024F00000F06EFA00202077F00619D515F01000D4
:1025000016D020686FF01001016108212177C069A1
:1025100010F4407F04D02046FFF798FF06E000BF8C
:10252000204600F0F7F8204600F052FA002020770D
:10253000F00718BF15F0010002D1300609D412E0EF
:1025400020686FF001010161204600F043FA300677
:1025500009D515F0800006D020686FF08001016178
:102560002046FFF72DFD700609D515F0400006D076
:1025700020686FF040010161204600F02DFAB0069E
:1025800058BF70BD15F0200008D021686FF0200200
:1025900020460A61BDE87040FFF714BD70BD000021
:1025A000F0B587B000684FF6FF71C4F200018842B1
:1025B0004FF000010691CDE90411CDE902112BDCA9
:1025C00040F60001C4F2000188424FD040F60041BD
:1025D000C4F20001884240F09B80002043F63001A5
:1025E0000190C4F202010A6842F080020A600968A0
:1025F00001F08001019101994FF4E0510291022113
:10260000CDE90310CDE9050140F60000C4F2020057
:1026100000F5A05478E000BF40F20041C4F201018F
:10262000884241D00021C4F20101884270D10020CB
:1026300043F630010190C4F202010A6842F0100230
:102640000A60096801F01001019101994FF4D44129
:1026500002910221CDE9031005900120069040F679
:102660000000C4F2020000F500644DE0002043F6D3
:1026700030010190C4F202010A6842F008020A60C7
:10268000096801F00801019101994FF4804102911C
:102690000221CDE90310CDE9050140F60000C4F2A6
:1026A000020000F580642FE0002543F6300001951C
:1026B000C4F20200016840F6000441F48071016038
:1026C0000168C4F2020401F480710191019901953D
:1026D0000168022641F0040101600068032700F050
:1026E000040001900198C020029004F5C05002A996
:1026F000CDE9036505950697FEF7D6FE4020CDE9A6
:102700000206CDE90455069702A92046FEF7CCFE45
:1027100007B0F0BD704700002DE9F04390F83C3061
:10272000012B04BF0220BDE8F0834FEAB202032A66
:1027300000F2FC80DFE802F0023E7EBE036840F259
:1027400000471C6A1A6A24F0020422F001021A628D
:102750001A46D3F804E052F818CF8E6843F4806527
:10276000C4F20107BD4244EA060405D1CE6824F054
:102770000C0426F0040634430E68BD4207D1D1E9AB
:1027800005572EF4407E45EA0E0545EA070E2CF06B
:1027900073073743C3F804E09F614F6809695F63BB
:1027A0001C629F6947F008079F619F6927F0040733
:1027B0009F61B1E0036840F200481C6A1A6A24F085
:1027C000200422F010021A621A46D3F804C052F80C
:1027D00018EF8F6843F48065C4F20108454544EA68
:1027E000071407D1CF686FF0400624F0C00406EA52
:1027F00007163443D1F80090454506D1D1E9055676
:102800002CF440672E4347EA860C2EF4E64747EA4D
:102810000927C3F804C09F614F6809699F631C6260
:102820009F6947F400679F619F6927F480679F61F4
:1028300071E000BF036840F200481C6A1A6A24F481
:10284000007422F480721A621A46D3F804C052F857
:102850001CEF8F6843F48065C4F20108454544EAE3
:10286000072408D1CF6840F2FF463F0224F44064B9
:1028700027EA06063443D1F80090454506D1D1E950
:1028800005562CF440572E4347EA061C2EF07307DA
:1028900047EA0907C3F804C0DF614F680969DF63CD
:1028A0001C62DF6947F00807DF61DF6927F0040772
:1028B000DF6131E0036840F20045D3F820C01A6AB6
:1028C00043F4806722F480521A621A465C6852F818
:1028D0001CEFD1F800808E68C4F20105AF4204D12C
:1028E0004D6924F4804444EA85142CF4005747EAE7
:1028F00006372EF4E64646EA08265C60DE614E683E
:1029000009691E641F62DF6947F40067DF61DF69E0
:1029100027F48067DF610902136819431160002101
:10292000002280F83C200846BDE8F0830121002207
:1029300080F83C200846BDE8F0830000002804BF72
:102940000120704710B5044690F83D0028B90020DA
:1029500084F83C00204600F01FF8022084F83D0077
:102960002068211D01F016F9012084F8460084F842
:102970003E0084F83F0084F8400084F8410084F869
:10298000420084F8430084F8440084F8450084F849
:102990003D00002010BD000081B0006840F60041FD
:1029A000C4F20001884201D001B0704700200090BD
:1029B00043F64000C4F20200016841F008010160E2
:1029C000006800F008000090009801B07047000017
:1029D000704700007047000070470000704700001B
:1029E00070470000B0B582B0044600680168C36853
:1029F000426901F02F05202D03F0200506D12DB1ED
:102A0000204602B0BDE8B04001F070B95FEA017C39
:102A10001EBF02F0010E03F4907212EB0E0253D1AE
:102A2000226B012A05D111F0100218BF13F0100219
:102A300036D10A0622D513F080021FD094F8411037
:102A400021293FD1A168B1F5805F03D12169002917
:102A500000F07282216A4A1C226209784160E18C8E
:102A600001390A04E1842DD1C16821F08001C160DF
:102A7000C16841F04001C16002B0B0BD490621D536
:102A800013F040011ED0C16821F04001C160202137
:102A9000204684F8411002B0BDE8B04000F0EABB27
:102AA00000210191016801914168019101994069FA
:102AB000400613D4A08DE18DE28D002A18BF884214
:102AC00040F0BC8102B0B0BDCA0718BF13F48072D9
:102AD00040F0B8804A0700F1BB80C0E0E06B0168BD
:102AE00049688AB2002AEDD0A38D9A42EAD2E185E4
:102AF000C069B0F5807F00F09C80206850E8030F2B
:102B0000216820F4807041E80302DAB1206850E8BF
:102B1000030F216820F4807041E8030292B120681D
:102B200050E8030F216820F4807041E803024AB1A5
:102B3000206850E8030F216820F4807041E8030208
:102B4000002ADAD1206850E8050F216820F0010042
:102B500041E80502DAB1206850E8050F216820F04D
:102B6000010041E8050292B1206850E8050F216894
:102B700020F0010041E805024AB1206850E8050F45
:102B8000216820F0010041E80502002ADAD120681E
:102B900050E8050F216820F0400041E80502DAB155
:102BA000206850E8050F216820F0400041E8050248
:102BB00092B1206850E8050F216820F0400041E8FC
:102BC00005024AB1206850E8050F216820F0400056
:102BD00041E80502002ADAD1202084F842000020D2
:102BE0002063206850E8030F216820F0100041E8BE
:102BF0000302DAB1206850E8030F216820F01000CA
:102C000041E8030292B1206850E8030F216820F0E8
:102C1000100041E803024AB1206850E8030F216820
:102C200020F0100041E80302002ADAD1E06BFEF741
:102C30003BFA02206063A08DE18D401A81B22046EC
:102C400075E100BF626C42F0010262644A0706D57A
:102C5000BEF1000F03D0626C42F0020262648A0788
:102C600006D5BEF1000F03D0626C42F0040262642C
:102C7000BCF1000F09D545EA0E02B2FA82F2520900
:102C800003D1626C42F008026264626C002A3FF475
:102C900019AF11F0200118BF002D03D0204601F01C
:102CA00025F820684069616C00F0400001F00801DF
:102CB000401800F0B58000BF206850E8030F21687D
:102CC00020F4907041E80302BAB3206850E8030F83
:102CD000216820F4907041E8030272B3206850E844
:102CE000030F216820F4907041E803022AB32068A2
:102CF00050E8030F216820F4907041E80302002A95
:102D0000DAD11AE0206850E8050F216820F00100B0
:102D100041E80502DAB1206850E8050F216820F08B
:102D2000010041E8050292B1206850E8050F2168D2
:102D300020F0010041E805024AB1206850E8050F83
:102D4000216820F0010041E80502002ADAD1206B59
:102D5000012824D1206850E8030F216820F01000DA
:102D600041E80302DAB1206850E8030F216820F03F
:102D7000100041E8030292B1206850E8030F216877
:102D800020F0100041E803024AB1206850E8030F28
:102D9000216820F0100041E80302002ADAD1202047
:102DA00084F84200002020632068406940063FD537
:102DB000206850E8050F216820F0400041E8050236
:102DC000DAB1206850E8050F216820F0400041E8A2
:102DD000050292B1206850E8050F216820F04000FC
:102DE00041E805024AB1206850E8050F216820F04B
:102DF000400041E80502002ADAD1E06BC0B143F699
:102E0000E141C0F600010165FEF796F900283FF4A4
:102E100059AEE06B016D02B0BDE8B040084700BF9D
:102E20002046FFF7DDFD0020606402B0B0BD00BFAA
:102E3000204602B0BDE8B040FFF7D2BD401A21687D
:102E400051E8031F226821F4907142E80313DBB1BB
:102E5000216851E8031F226821F4907142E80313AE
:102E600093B1216851E8031F226821F4907142E870
:102E700003134BB1216851E8031F226821F49071BC
:102E800042E80313002BDAD1216851E8051F2268BC
:102E900021F0010142E80513DBB1216851E8051F6B
:102EA000226821F0010142E8051393B1216851E83D
:102EB000051F226821F0010142E805134BB121688A
:102EC00051E8051F226821F0010142E80513002B9B
:102ED000DAD1202184F8421000212163216851E8D1
:102EE000031F226821F0100142E80313DBB12168BF
:102EF00051E8031F226821F0100142E8031393B147
:102F0000216851E8031F226821F0100142E80313F1
:102F10004BB1216851E8031F226821F0100142E8FB
:102F20000313002BDAD1022281B22046626302B081
:102F3000BDE8B040FFF752BD216A31F8022B6FF3B4
:102F40005F22426021628AE5002804BF01207047A9
:102F500010B5044690F8410028B9002084F84000DC
:102F6000204600F021F8242084F841002068C16840
:102F700021F40051C160204600F038FF206801694B
:102F800021F490410161416921F02A014161C16848
:102F900041F40051C16000202021606484F8411098
:102FA00084F84210606310BD2DE9F04F87B00446ED
:102FB000006844F60001C4F2000100258842CDE912
:102FC0000555CDE90355029500F09A8041F2004184
:102FD000C4F20101884200F0DB8041F20001C4F23A
:102FE0000101884240F04181002743F630000197FB
:102FF000C4F202004169002541F0100141614169BC
:10300000C4F2020501F010010191019901970168D4
:1030100002AE41F002010160016846F2284801F069
:10302000020101910199019701684FF0020941F0F5
:103030000101016000684FF0030A00F001000190F7
:103040000198802002904FF0070B05F58060314613
:10305000C4F20208CDE90397CDF814A0CDF818B05A
:10306000FEF722FA4FF40070CDE9020904A880E8C7
:10307000800C28463146FEF717FA40F2002508F189
:103080001800C2F200054FF000664FF4806985E831
:10309000C1002846C5E90379C5E90577C5E9077781
:1030A0006F62FEF73BF9002818BFFDF701FAE563F0
:1030B000AC6340F2602508F19000C2F200054021A7
:1030C000C5E9000605F1080080E882022846C5E946
:1030D0000577C5E907776F62FEF720F9002818BF6A
:1030E000FDF7E6F9252000210022A563AC63FEF779
:1030F00065FB2520FEF74EFB07B0BDE8F08F00BF53
:1031000043F630000195C4F202000169002741F442
:10311000802101610169C4F2020701F4802101915B
:1031200001990195016802AC41F004010160016858
:103130004FF0020801F00401019101990195016825
:103140004FF0030941F0080101600068072600F014
:103150000800019001984FF40060029007F50060AC
:103160002146CDE90385CDF814900696FEF79CF92B
:103170004FF48070CDE9020807F540602146CDE9A3
:1031800004590696FEF790F907B0BDE8F08F00BF2E
:10319000002643F630000196C4F20200416946F26F
:1031A000284841F0200141614169C4F2020801F060
:1031B0002001019101990196016841F040010160EF
:1031C000006802A900F04000019001984FF484408B
:1031D00002900220CDE90306032005900820069006
:1031E0000020C4F2020000F5C050FEF75DF940F285
:1031F000C025C2F200054FF020674FF480692846D1
:10320000C5E90087C5E90266C5E90496C5E9066611
:10321000C5E90866FEF782F8002818BFFDF748F9EF
:10322000E563AC6340F2203508F17800C2F2000596
:103230004021C5E9000705F1080080E84202284660
:10324000C5E90566C5E907666E62FEF767F80028FE
:1032500018BFFDF72DF9472000210022A563AC63BC
:10326000FEF7ACFA4720FEF795FA07B0BDE8F08FFD
:103270007047000070470000FEE7000010B584B002
:1032800040F2D000C2F2000042F2002C4FF0805415
:103290004FF000620021C4F2010C4FF48033C0E90A
:1032A0000A2401240391017680F82010C46180F87B
:1032B0003010C0E900C3C0E90211C0E90414FDF7F1
:1032C00041FA002818BFFDF7F3F80820CDE9000403
:1032D0000220029040F2D000C2F200006946FDF7E1
:1032E000EDF8002818BFFDF7E3F804B010BD0000AA
:1032F00080B540F2181046F20041C2F20000C4F25C
:1033000000010322002380E80E0000F10C014FF4BD
:10331000102C4FF4001E81E808504FF48071018397
:10332000C0F81A30FDF7A4FD002808BF80BDBDE835
:103330008040FDF7BDB8000080B582B0002001904C
:1033400043F63000C4F202000168002241F480011B
:1033500001600068002100F480000190019838208D
:10336000FEF72CFA3820FEF715FA3920002100224A
:10337000FEF724FA3920FEF70DFA3A200021002248
:10338000FEF71CFA3A20FEF705FA3B200021002246
:10339000FEF714FA3B20FEF7FDF94520002100223C
:1033A000FEF70CFA4520FEF7F5F946200021002231
:1033B000FEF704FA462002B0BDE88040FEF7EAB905
:1033C0002DE9F04385B0002743F630000097C4F2A2
:1033D0000200016840F2004441F0400101600168D0
:1033E000C4F2020401F040010091009900970168C5
:1033F000A4F5806541F0020101600168012201F03D
:10340000020100910099009701684FF0100941F006
:103410000101016001684FF0010801F00101009114
:1034200000990097016841F008010160016801F00E
:103430000801009100990097016841F004010160C2
:10344000016801F00401009100990097016841F4BE
:1034500080710160016801F480710091009900970A
:10346000016841F080010160016801F08001009174
:1034700000990097016841F020010160016801F0A6
:103480002001009100990097016841F0100101604E
:103490000068102100F01000009000982846FEF708
:1034A000D7F8204601210122FEF7D2F840200090F3
:1034B0000220CDE901070320039009206E46049005
:1034C00020463146FDF7F0FF28463146CDE9009809
:1034D000CDE90277FDF7E8FF20463146CDE90088C7
:1034E000CDE90277FDF7E0FF05B0BDE8F08300000D
:1034F00080B540F2803043F20001C2F20000C4F215
:103500000001002240F6FF7380E80E00FEF7ACF8E1
:10351000002808BF80BDBDE88040FCF7C9BF00009F
:1035200010B540F28C3043F20001C2F20000C4F248
:1035300001014FF4827200234FF0010C4FF4007E22
:10354000182480E80E000A21C0E90333C0E905CE43
:10355000C461C0E90833C0E90A31FEF733FC002832
:1035600008BF10BDBDE81040FCF7A2BF10B596B073
:1035700040F2E43000220021C2F20000C4F2010255
:103580004FF6FF731591CDE913111191CDE90F118C
:10359000CDE90D11CDE90B11CDE90911CDE90711E7
:1035A000CDE90511CDE90311CDE90111C0E90021F3
:1035B000C0E90213C0E904118161FEF787FD00280C
:1035C00018BFFCF775FF4FF48050129040F2E430C2
:1035D000C2F2000012A9FEF76BFE002818BFFCF72C
:1035E00067FF40F2E430C2F20000FFF7A7F90028BD
:1035F00018BFFCF75DFF40F2E4300024C2F2000087
:1036000010A9CDE91044FEF705FD002818BFFCF70E
:103610004FFF6020CDE9090440F2E430C2F200001F
:1036200009A90022CDE90B44CDE90D440F94FFF721
:1036300073F8002818BFFCF73BFF40F2E430C2F2F9
:10364000000009A90422FFF767F8002818BFFCF75B
:103650002FFF40F2E430C2F2000009A90822FFF770
:103660005BF8002818BFFCF723FF40F2E430C2F2F9
:10367000000009A90C22FFF74FF8002818BFFCF73B
:1036800017FF00200590CDE90300CDE901004FF4BC
:103690000051089040F2E4300691C2F2000001A906
:1036A000FEF792FC002818BFFCF702FF40F2E4305E
:1036B000C2F20000FEF774FF16B010BD80B586B0F0
:1036C0002020009040F22C4040F200420021C2F243
:1036D0000000C4F200024FF6FF730591CDE903111B
:1036E0000191C0E90021C0E9021301618161FEF787
:1036F000EDFC002818BFFCF7DBFE4FF48050029071
:1037000040F22C40C2F2000002A9FEF7D1FD0028D1
:1037100018BFFCF7CDFE40F22C40C2F20000694613
:10372000FEF778FC002818BFFCF7C2FE06B080BD8B
:1037300010B58EB040F2744040F600020021C2F293
:103740000000C4F200024FF6FF730D91CDE90B119A
:103750000991CDE90711CDE90511CDE90311CDE9B5
:103760000111C0E90021C0E90213016180218161DA
:10377000FEF7ACFC002818BFFCF79AFE4FF480500F
:103780000A9040F27440C2F200000AA9FEF790FDD0
:10379000002818BFFCF78CFE40F27440C2F2000013
:1037A000FFF7CCF8002818BFFCF782FE40F2744007
:1037B0000024C2F2000008A9CDE90844FEF72AFC63
:1037C000002818BFFCF774FE6020CDE9010440F228
:1037D0007440C2F2000001A9082203940594FEF788
:1037E0009BFF002818BFFCF763FE40F27440C2F252
:1037F0000000FEF7D5FE0EB010BD000080B58AB007
:1038000040F2BC4040F600420021C2F20000C4F287
:1038100000026323CDE90811CDE90611CDE90411B9
:10382000C0E90021C0E9021301618161FFF786F858
:10383000002818BFFCF73CFE40F2BC40C2F200007A
:1038400008A9FEF7E7FB002818BFFCF731FE60204F
:1038500001900020CDE90200059040F2BC40C2F288
:10386000000001A90022FEF757FF002818BFFCF74F
:103870001FFE40F2BC40C2F2000001A90422FEF784
:103880004BFF002818BFFCF713FE40F2BC40C2F209
:10389000000001A90822FEF73FFF002818BFFCF72F
:1038A00007FE40F2BC40C2F20000FEF779FE0AB00B
:1038B00080BD000080B582B040F2045041F20002A9
:1038C0000021C2F20000C4F20002532340F2E73CA0
:1038D000CDE90011C0E90023C0E9021C8161FEF7B7
:1038E000F5FB002818BFFCF7E3FD40F20450C2F2DC
:1038F00000006946FEF78EFB002818BFFCF7D8FDD4
:1039000002B080BD80B582B040F24C5041F200421E
:103910000021C2F20000C4F20002532340F2E73C4F
:10392000CDE90011C0E90023C0E9021C8161FEF766
:10393000CDFB002818BFFCF7BBFD40F24C50C2F293
:1039400000006946FEF766FB002818BFFCF7B0FDD3
:1039500002B080BD10B596B040F2945040F20042E3
:103960000021C2F20000C4F201024FF6FF7315916C
:10397000CDE913111191CDE90F11CDE90D11CDE96B
:103980000B11CDE90911CDE90711CDE90511CDE9FB
:103990000311CDE90111C0E90021C0E90213C0E91A
:1039A00004118161FEF792FB002818BFFCF780FD2F
:1039B0004FF48050129040F29450C2F2000012A9CD
:1039C000FEF776FC002818BFFCF772FD40F2945019
:1039D000C2F20000FEF7B2FF002818BFFCF768FD36
:1039E00040F294500024C2F2000010A9CDE9104426
:1039F000FEF710FB002818BFFCF75AFD6020CDE948
:103A0000090440F29450C2F2000009A90022CDE955
:103A10000B44CDE90D440F94FEF77EFE002818BF3D
:103A2000FCF746FD40F29450C2F2000009A90422BE
:103A3000FEF772FE002818BFFCF73AFD40F29450E2
:103A4000C2F2000009A90822FEF766FE002818BF8E
:103A5000FCF72EFD00200590CDE90300CDE9010023
:103A60004FF40051089040F294500691C2F20000C9
:103A700001A9FEF7A9FA002818BFFCF719FD40F2CA
:103A80009450C2F20000FEF78BFD16B010BD00008E
:103A900080B540F2DC5041F20001C2F20000C4F2F5
:103AA000010144F2402200234FF00C0CC0F20F023F
:103AB00080E80E00C0E90333C0E905C3C361FFF726
:103AC00043FA002808BF80BDBDE88040FCF7F0BC89
:103AD00010B540F2246044F6000C44F24022C2F2D9
:103AE0000000C4F2000CC0F20F024FF4805300211A
:103AF0004FF4806E0C24C0E900C2C0E90231C0E975
:103B000004E4C0E90611FFF71FFA002808BF10BD42
:103B1000BDE81040FCF7CCBC80B540F26C6041F2CF
:103B20000041C2F20000C4F2010100234FF00C0C6E
:103B30004FF4E13280E80E00C0E90333C0E905C369
:103B4000C361FFF701FA002808BF80BDBDE88040CF
:103B5000FCF7AEBCFEE70000FEE700007047000087
:103B600070470000FDF7ACBD4EF68850CEF2000065
:103B7000016841F4700101607047000040F2045098
:103B8000C2F20000FEF764BC40F24C50C2F20000EA
:103B9000FEF75EBC10B540F6FF3E0368C4F2000EAF
:103BA00040F2004C7045C4F2010C27DCB0F1804FAC
:103BB00031D040F20042C4F2000290422BD040F6D5
:103BC0000002C4F20002904225D041F6FF72C4F216
:103BD0000002904229DC70453CDCB0F1804F5FD0A0
:103BE00040F20042C4F20002904259D040F6000276
:103BF000C4F20002904253D056E000BF40F60042AB
:103C0000C4F20002904206D0604504D00022C4F203
:103C100001029042D9D14A6823F07003134341F660
:103C2000FF72C4F200029042D5DD43F6FF72C4F287
:103C30000102904222DC42F20002C4F200029042F1
:103C40002ED00022C4F20102904229D0604527D034
:103C50002AE000BF40F60042C4F2000290421FD0AA
:103C600041F60002C4F20002904219D041F600422F
:103C7000C4F20002904213D016E000BF44F20002EA
:103C8000C4F2010290420BD044F60002C4F20102D9
:103C9000904205D044F20042C4F20102904203D1A6
:103CA000CA6823F44073134323F080024B69D1F8B0
:103CB00000E08C681A430260C46240F48062C0F87D
:103CC00028E0624504BF096901630121416101697E
:103CD000C90708BF10BD016921F00101016110BDD4
:103CE000806B0021C185C184FEF77ABE81B090F857
:103CF0004210222921D183680246B3F5805F09D1A1
:103D000052F8281F52F8183C002B63D003685B68F8
:103D10000AE000BF52F8281F13B90369002BF5D041
:103D200003685B6803F07F030B7011680131116059
:103D3000C18D01390A04C18502D001B0704700BFAE
:103D40000168CA6822F02002CA60CA6822F4807240
:103D5000CA604A6922F001024A61202180F84210BB
:103D600000214163026B012A3CD10163016851E8E3
:103D7000031F026821F0100142E80313DBB1016860
:103D800051E8031F026821F0100142E8031393B1C8
:103D9000016851E8031F026821F0100142E8031393
:103DA0004BB1016851E8031F026821F0100142E89D
:103DB0000313002BDAD101680A68D20606D5002267
:103DC00000920A680092496800910099818D01B0C3
:103DD000FEF704BE026852686FF35F2221F8022BDF
:103DE0008162A5E701B0FFF743BA000010B50446B1
:103DF0000068D4E902C22369016921F440511143EA
:103E00000161626943EA0C01E3691143C268194325
:103E100049F20C639A431143C1604169A26921F4DC
:103E2000407141F20043114340F48062C4F2010347
:103E30009A42416102D1FDF7C1FD01E0FDF7AAFD03
:103E4000E16963681922B1F5004FA0FB020123D19B
:103E50005A00DB0FFCF70AFA48F21F51C5F2EB11CA
:103E6000A0FB01235A094FF69C73C0F6FF7303F1C0
:103E7000805302FB0300322303EBC000A0FB0101CF
:103E80004FF4F87000EA111000EB0210C1F3421178
:103E900008442168886010BD9A009B0FFCF7E6F982
:103EA00048F21F51C5F2EB11A0FB01235A094FF64E
:103EB0009C73C0F6FF7302FB0300322303EB001078
:103EC000A0FB0101F02000EA511000EB0210C1F349
:103ED000431108442168886010BD000040F2DC50A6
:103EE000C2F20000FEF77EBD40F26C60C2F200003C
:103EF000FEF778BDFEE7000040F29000C2F200003D
:103F000000F0C0B8B0B592B0002443F640000A9467
:103F1000CDE908440594CDE90344CDE9014400947A
:103F2000C4F202000168022541F08051016000687E
:103F300000F08050009047F200000094C4F20000AE
:103F4000016841F480410160006800F48040009005
:103F5000092006904FF48030079001200B904FF419
:103F600080000D9006200E90A820CDE90F050420BA
:103F7000119006A80C95FDF76BFD18B172B600BF45
:103F8000FEE700BF0F20CDE901054FF4A0500490DB
:103F90004FF48050059001A805210394FDF74AFCD9
:103FA00010B172B6FEE700BF12B0B0BD0000000055
:103FB000B0B52DED028B90ED030A044680ED040AA6
:103FC00008889FED2B2A40BA01EE100AB8EEC11AFC
:103FD00021EE021A9FED272A31EE408AB4EE428A82
:103FE0000D46F1EE10FA84ED031A05DA9FED240A6E
:103FF00038EE008A0BE000BF9FED1F0AB4EE408A46
:10400000F1EE10FAC4BF9FED1D0A38EE008A84ED70
:10401000058A688840BA00F0C8F89FED130B53EC8E
:10402000102B00F0D9F800F08FF894ED000AA06191
:1040300088EE000AA88894ED012A40BA01EE100A21
:10404000B8EEC11A84ED071AA87901EE100AB8EE8D
:10405000411A84ED081A30EE021A84ED011A84ED3B
:10406000020ABDEC028BB0BD000000000000184049
:10407000A005343D000034C3000034430000B4C345
:104080000000B4434AF22D01C4F299110022C0E9A4
:1040900000120021C4F2C811C0E90222C0E90422C2
:1040A000C0E90622016270478AB0FDF717FBFFF7EF
:1040B00029FFFFF785F9FFF73FF9FFF7DFF8FFF773
:1040C00017FAFFF7FBFAFFF733FBFFF797FBFFF752
:1040D000F1FBFFF717FCFFF7DBFCFFF7F9FCFFF73D
:1040E0001BFDFFF705F9FFF741FAFFF733FCFFF778
:1040F00017FA6D4628462821FCF730F90E2040F2C9
:10410000181405900120C2F20004CDE907002046F2
:104110002946FCF771FC2046FCF78AFF2046022165
:10412000FCF7FEFB40F20005C2F2000505F10806AF
:10413000204631462A460023FCF70AFC4FF47A70E9
:10414000FDF79EF9F4E7000021F0004201F0004382
:10415000A2F16052B2F5801F28BFD2F17F6C0BD95B
:104160005FEA001C43EAC20242EB507018BF70477E
:1041700028BF20F001007047B2F5801FBCBF184671
:1041800070474FEA410C1CF5001F02D2084600F0B0
:104190002EB970B500F0CAF800000089FFF7F6BF2D
:1041A0004FF00040A0F58000704710F0004248BF7B
:1041B0004042B0FA80F310FA03F10AD0C3F11D03B4
:1041C00003F5806302EB03524FEA415002EBD12129
:1041D00070474FF00000704770B5DFF848C11CEA27
:1041E000111E1EBF1CEA13159EEA0C0F95EA0C0F58
:1041F00000F06F8081EA03044EEAD47EAE4421EAE7
:104200004C1123EA4C1341F4801143F48013AEF1B6
:104210007F7EA1FB024CA0FB0365361955EB0C0514
:10422000A1FB034C4CF10003A0FB021C16EB0C0697
:10423000654153F10003094218BF46F0010613F42B
:10424000007F0BD14FEA03314FEA053041EA1551A7
:1042500040EA165034036FF003020AE04FEAC3212C
:104260004FEAC52041EA555140EA5650F4026FF03A
:10427000020202EB2E4201EB025585EACE710AD012
:104280005FEA440C18BF24F0004450F1000041F1F3
:10429000000120EAD47040F2FE7C624500D270BD7D
:1042A000A84214BF4FF080444FF04044002E08BF96
:1042B0000024BEF1806FA8BFA1F1C041BDE87040ED
:1042C00080F2828001F1C04101F000414FF0000016
:1042D00070470CEA13159EEA0C0F18BF95EA0C0FF5
:1042E00006D081EA030E4FF000000EF0004170BDD1
:1042F00000F01CF88900013E00F007B800F009B892
:104300004FEA430C5FEA5C5C08D081EA030100F0ED
:104310005BB84FEA410C5FEA5C5CF6D102494FF0B2
:10432000000070470000FF070000F87F0EF1020E4A
:104330002EF0030E5EF8046B364205D4012A43EBDF
:10434000030515F5001F12D8012841EB010C1CF5DF
:10435000001F0CD80ED14FEAD17C0CEB4C0C0CF1A9
:10436000020C15F5001F08BF4CEBD37C04E04FF0A6
:10437000080C01E04FEAD37C0CEB4C0526FA05F65D
:1043800006F00706B6F1040C06D20EEB860CBDE86B
:1043900070404CF0010C6047DFE80CF0090B0202A2
:1043A0004FF00041A1F500214FF0000070BD19460B
:1043B0001046012851EB010418BFD4F5001484BF46
:1043C000002001F0004170BD0808A0F500114FEA7F
:1043D00031017047F1EE100A4FF6FF71C0F2C031A3
:1043E00020EA010040F04070E1EE100A7047FF2122
:1043F00041EAD050C00570470000000000000000F6
:10440000010203040607080900000000010203047A
:104410000006101600061016404400080000002098
:1044200030000000C4010008704400083000002083
:1044300090360000E0010008C1FAFFFF0000000014
:10444000000000FF0000000000020000000000006B
:104450000000000000000000080000000000000054
:1044600001000000100000000024F4000000000023
:040000050800018965
:00000001FF
